S01B00005155544D535F53687574646F776E426F6172642E73726563CC
S11300000C943E000C945B000C945B000C945B001D
S11300100C945B000C945B000C945B000C945B00F0
S11300200C945B000C945B000C945B000C945B00E0
S11300300C945B000C945B000C945B000C945B00D0
S11300400C945B000C94E1080C944C080C945B0039
S11300500C945B000C945B000C9422080C945B00E1
S11300600C945B000C945B000C945B000C945B00A0
S11300700C945B000C945B000C945B0011241FBE79
S1130080CFEFD0E1DEBFCDBF11E0A0E0B1E0EAE206
S1130090F9E102C005900D92A830B107D9F721E02B
S11300A0A8E0B1E001C01D92A238B207E1F70E94B6
S11300B064060C94930C0C940000EF92FF920F933F
S11300C01F93CF93DF9381E08093D80080E00DEEFF
S11300D010E06FEE70E04EEE50E027EF30E0C6EF38
S11300E0D0E0A5EFB0E00F2EF4EFEF2EF12CF02DC1
S11300F0982F9295907FF8019083FB011082FA016A
S11301001082F901108218821C92F70110828F5F0D
S1130110863071F78EE08093E20084E08093E30000
S113012083E18093E40080E38093DE0080EA80939F
S1130130DB0082E08093D800FFEF20E782E0F150FB
S113014020408040E1F700C000008091D90082FB8C
S1130150882780F991E08927DF91CF911F910F9132
S1130160FF90EF900895EF92FF920F931F93829563
S1130170807F8093ED00822F880F880F880F8093F3
S1130180F400DA01C901689414F8B695A795979517
S113019087951694D1F78093F500DA01C901072EEB
S11301A07DE0B695A795979587957A95D1F7702DAB
S11301B08093F600DA01C901072E75E1B695A7957B
S11301C0979587957A95D1F7702D8093F7008E2DAA
S11301D0880F880F880F8093F000D801C7016894B6
S11301E014F8B695A795979587951694D1F78093AB
S11301F0F100D801C701072E7DE0B695A795979524
S113020087957A95D1F7702D8093F200D801C701B4
S1130210072E75E1B695A795979587957A95D1F7A9
S1130220702D8093F30060696093EF001F910F912C
S1130230FF90EF900895EF920F931F938295807F24
S11302408093ED00EEEEF0E080818F7B808310924E
S1130250F400802F880F880F880F8093F000D90155
S1130260C801689414F8B695A79597958795169440
S1130270D1F78093F100D901C801072E7DE0B6952E
S1130280A795979587957A95D1F7702D8093F2006D
S11302900F2EF5E13695279517950795FA95D1F721
S11302A0F02D0093F300662371F0FA018FEF860FAF
S11302B090E00196480F591FAAEFB0E081918C930A
S11302C0E417F507D9F760656093EF00EE20A1F01D
S11302D08091EE0086FD10C080E0EEEEF0E003C0F9
S11302E0908196FD09C0AFE9BFE01197F1F700C016
S11302F000008F5FE812F4CF1F910F91EF900895E3
S1130300CF93DF931092ED008091EE008E75B1F4DF
S11303108091EF0086FF14C081E0ADEEB0E0EEEE18
S1130320F0E0CFEED0E0982F9295907F9C9390814F
S11303309E7561F4988196FD05C008C080E006C0F2
S113034080E004C08F5F843071F78FEFDF91CF912D
S11303500895F999FECF0E946A0C0895F999FECF89
S11303600E94700C089580E090E00E94A90190938F
S113037076018093750182E090E00E94A901909338
S1130380780180937701089581E08093680060E0AC
S11303908CE20E94460988E180936A000895DC019A
S11303A08A599F4F1C9211961C921197FD01329607
S11303B09D012E5E3F4F118A108A11921192E2170D
S11303C0F307C9F79296A817B90761F7089586EC61
S11303D084B98BE88AB987EA87B915B88BB18A687A
S11303E08BB9479A459A2F98409A089514BC85E092
S11303F085BD81E080936E0008950F931F93CF9382
S1130400DF931F92CDB7DEB78C0119820E94F209E7
S1130410F801018110E020E030E0322F212F102F6D
S11304200027026124603860AE014F5F5F4F60E0D7
S11304300E94C00B81E00F90DF91CF911F910F912B
S1130440089510920E0141980895419A0895CF930A
S1130450DF93EC018981882391F090E06817790794
S113046029F1FE01B2968BA1882341F090E0681730
S11304707907F1F0B2968181811112C0EF01809168
S11304800A01811105C0809108018F5F80930801E2
S11304906983CE010E94FD018823D9F380E00BC05B
S11304A090E08617970731F481E005C081E003C02E
S11304B081E001C082E0DF91CF910895BF92CF9295
S11304C0DF92EF92FF920F931F93CF93DF93CDB7F9
S11304D0DEB728970FB6F894DEBF0FBECDBF8C01F0
S11304E0F62EE42E66E0620FCE0101960E94AC095E
S11304F0498150E0542F44278A81482B2B8130E0D6
S1130500322F22278C81282B8D8190E0982F8827E9
S11305106E81FC01E62BBF018F8190E0982F882724
S1130520E8858E2BD801AA59BF4FB12CDD24D39472
S1130530F801C180CF1051C0F2E0EF16E9F1FE15C9
S113054020F0E1E0EE16C1F047C0F4E0EF1621F030
S1130550E5E0EE1609F140C0F801538B428B358B70
S1130560248B778B668B918F808FE0910901EF5FED
S1130570E0930901BD2C31C0F801538342833583D4
S113058024837783668391878087E0910901EF5FF5
S1130590E0930901BD2C21C0F801538F428F358FA0
S11305A0248F778F668F91A380A3E0910901EF5F79
S11305B0E0930901BD2C11C0F801538742873587A8
S11305C0248777876687918B808BE0910901EF5FA1
S11305D0E0930901BD2C01C0BD2C0E5D1F4FA01777
S11305E0B10709F0A5CF81E0B11001C080E02896E1
S11305F00FB6F894DEBF0FBECDBFDF91CF911F9130
S11306000F91FF90EF90DF90CF90BF9008954F929D
S11306105F926F927F928F929F92AF92BF92CF928E
S1130620DF92EF920F931F93CF93DF93CDB7DEB793
S113063028970FB6F894DEBF0FBECDBF4CAC5DACAF
S11306408EAC9FAC22966EAC7FAC22978E01045D7B
S11306501F4FCE0101966C015E0194E3A90EB11CFB
S1130660F601D8018D919D918D01D3014D915D913C
S11306706D917C911397480F591F611D711D4D9306
S11306805D936D937C931397D4012D913C918217C4
S1130690930708F49C01D4012D933C93D2012D912E
S11306A03C912817390708F49C01D2012D933C93FF
S11306B09083818332960A151B0599F60E94800166
S11306C0E12C04E610E220E032E0AE014F5F5F4F20
S11306D068E00E941B01EFE9FFE03197F1F700C0E9
S11306E000009E01245C3F4FD5018D919D915D01D9
S11306F0F3014081518162817381480F591F611D4B
S1130700711D4083518362837383F401408151815D
S11307108417950708F4AC01D4014D935C93F2015E
S1130720408151814817590708F4AC01D2014D9317
S11307305C93F60190838183F2E0CF0ED11CA21664
S1130740B30691F60E948001E12C05E610E220E058
S113075032E0AE014F5F5F4F68E00E941B018FE9FA
S11307609FE00197F1F700C0000080E090E0289638
S11307700FB6F894DEBF0FBECDBFDF91CF911F91AE
S11307800F91EF90DF90CF90BF90AF909F908F909C
S11307907F906F905F904F9008954F925F926F9209
S11307A07F928F929F92AF92BF92CF92DF92EF92FD
S11307B00F931F93CF93DF93CDB7DEB728970FB670
S11307C0F894DEBF0FBECDBF4CAC5DAC8EAC9FAC1D
S11307D022966EAC7FAC22978E01045E1F4FCE0131
S11307E001966C015E0194E2A90EB11CF601D801D8
S11307F08D919D918D01D4012D913C918217930788
S113080008F49C01D4012D933C93D2012D913C9189
S11308102817390708F49C01D2012D933C93D30186
S11308204D915D916D917C911397480F591F611DF6
S1130830711D4D935D936D937C9313979083818386
S113084032960A151B0599F60E948001E12C0AE0F4
S113085010E220E032E0AE014F5F5F4F68E00E949B
S11308601B01EFE9FFE03197F1F700C000009E01A2
S1130870245D3F4FD5018D919D915D01F40140812F
S113088051818417950708F4AC01D4014D935C930E
S1130890F201408151814817590708F4AC01D20193
S11308A04D935C93F3014081518162817381480FC0
S11308B0591F611D711D4083518362837383F60147
S11308C090838183F2E0CF0ED11CA216B30691F679
S11308D00E948001E12C0BE010E220E032E0AE0146
S11308E04F5F5F4F68E00E941B018FE99FE0019713
S11308F0F1F700C0000080E028960FB6F894DEBF40
S11309000FBECDBFDF91CF911F910F91EF90DF907C
S1130910CF90BF90AF909F908F907F906F905F909B
S11309204F9008952F923F924F925F926F927F92D1
S11309308F929F92AF92BF92CF92DF92EF92FF92EB
S11309400F931F93CF93DF93CDB7DEB728970FB6DE
S1130950F894DEBF0FBECDBF782E692E562E472EDB
S1130960242E352E922E832EC801B70128E130E0C3
S113097040E050E00E94480C122F032FC601B5013D
S113098028E130E040E050E00E94480CF22ED32EE3
S113099049825A826B827C820D831E830E9480016D
S11309A0009175011091760120E030E00F2EFDE0FA
S11309B0000F111F221F331FFA95D1F7F02D01608C
S11309C03260E12CAE014F5F5F4F66E00E941B0175
S11309D08FE99FE00197F1F700C0000089829A82B5
S11309E03B822C82DD82FE820E948001009175018F
S11309F01091760120E030E00F2EFDE0000F111F72
S1130A00221F331FFA95D1F7F02D02603260AE0138
S1130A104F5F5F4F66E00E941B018FE99FE00197E3
S1130A20F1F700C0000080E028960FB6F894DEBF0E
S1130A300FBECDBFDF91CF911F910F91FF90EF902B
S1130A40DF90CF90BF90AF909F908F907F906F90EA
S1130A505F904F903F902F900895882319F0813034
S1130A6019F008955F98089559980895882319F006
S1130A70813019F008955F9A0895599A089546951A
S1130A80613019F0811120C00895882309F442C00F
S1130A9020E059984423B9F190E0EBE8FFE0319766
S1130AA0F1F700C000009F5F4913F7CF29C0EBE8BE
S1130AB0FFE03197F1F700C000009F5F4913F7CFC3
S1130AC02F5F8213E6CF089520E05F984423E9F076
S1130AD090E0EBE8FFE03197F1F700C000009F5F82
S1130AE04913F7CF14C0EBE8FFE03197F1F700C0EA
S1130AF000009F5F4913F7CF2F5F8213E6CF08955D
S1130B00599A90E0D4CF599ADBCF5F9AF5CF5F9A88
S1130B1090E0E9CF0895CF93DF931F92CDB7DEB76E
S1130B2089830E94250288B188B9F894FF24F3943C
S1130B3088B18F2588B98090750190907601A12C99
S1130B40B12C072E7DE0880C991CAA1CBB1C7A953D
S1130B50D1F7702D83E0882A6894B1F80E9480014F
S1130B60E12C95018401AE014F5F5F4F6F2D0E9410
S1130B701B0144E660E082E00E943F0544E66F2DDD
S1130B8082E00E943F05D4CFEF92FF921F93CF9350
S1130B90DF93182F7B0181E0810F0E94E309C82FA6
S1130BA082E0810F0E94E309CF736C2F70E0660F1F
S1130BB0771F660F771F660F771F8295869587705C
S1130BC0EB01C82B84E0810F0E94E3098F7184300C
S1130BD0C9F028F4813061F18230A9F13FC0853039
S1130BE0E1F08331D9F5BE01C7010E9427028130AB
S1130BF019F0823021F032C082E00E948B0583E03C
S1130C000E948B05212F44E06C2FC7010E945E02D5
S1130C10811124C086E00E948B05212F45E06C2FB2
S1130C20C7010E945E02811119C086E00E948B05F3
S1130C30212F41E06C2FC7010E945E0281110EC07A
S1130C4086E00E948B05212F42E06C2FC7010E9491
S1130C505E02811103C086E00E948B05DF91CF9173
S1130C601F91FF90EF900895CF93DF93EC010E94C2
S1130C709C098370823071F08330B1F0813009F5C2
S1130C80BE0180E60E94C40541E060E08CE20E945F
S1130C905D0917C0BE0180E70E94C40542E060E020
S1130CA08CE20E945D090DC0BE0180E70E94C4056C
S1130CB0BE0180E60E94C40543E060E08CE20E942D
S1130CC05D09DF91CF910895CF93DF93CDB7DEB760
S1130CD064970FB6F894DEBF0FBECDBF6AEE73E023
S1130CE082E090E00E94AE0162E070E080E090E07B
S1130CF00E94AE018FE39CE90197F1F700C0000068
S1130D000E94E7010E94B3010E9425029FEF20E7A1
S1130D1082E0915020408040E1F700C000000E9432
S1130D203F0C8FE091E00E94CF010E945D000E9481
S1130D3075090E94C4010E94F601E12CF12C87017F
S1130D4020E030E0A90164E085E00E94B30060E0A7
S1130D508CE20E944609789410920801198243E1BA
S1130D6050E060E070E080E00E94090A40E050E05A
S1130D70BA0180E00E94340B9FEF20E782E091509B
S1130D8020408040E1F700C000000E94210281E081
S1130D900E942D051ABA19BA2EC042E360E081E020
S1130DA00E943F050E94F20901E110E024E038E0CE
S1130DB0AE014F5F5F4F60E00E94C00B8FE19EE485
S1130DC00197F1F700C0000089B38E3318F085E075
S1130DD00E948B05F79B0FC08CE20E94E309898374
S1130DE0837021F08FE091E00E943406F79860E070
S1130DF08CE20E94460980910801833071F681E0FB
S1130E000E9436050E94250248EC60E082E00E94C0
S1130E103F059FEF29E688E1915020408040E1F7AB
S1130E2000C00000F29BFECF81E080930B014E01D5
S1130E3097E0890E911C3E012DE0620E711C2E017B
S1130E408BE0480E511C1E0191E1290E311CCE018C
S1130E500F969C8B8B8BF19B19C085E0E2E0F1E04F
S1130E60DE01129601900D928A95E1F70E94F20933
S1130E7004E110E024E038E0AE014E5F5F4F65E02E
S1130E800E94C00B80E00E942D0503C080E00E94F8
S1130E90360580910B01882399F1109209010E9473
S1130EA021028FE19EE40197F1F700C00000F29B5C
S1130EB0F198F19B03C00E94210202C00E94250206
S1130EC081E00E942D0519BA89B38E3318F085E0AC
S1130ED00E948B05F79B0BC08CE20E94E309898377
S1130EE0837029F08FE091E00E943406F798809196
S1130EF009018C3049F781E00E94360510920B01FC
S1130F00F29B8AC08FEF9FEF9A8B898B188A1F867A
S1130F109E878D871C861B861F82188619861A86D3
S1130F201A821B821C821D82E12CF12C6E0192E03C
S1130F30C90ED11C9F928F927F926F925F924F92B3
S1130F4022E22E9D80012F9D100D1124015F1E4F62
S1130F508DB79EB782970FB6F8949EBF0FBE8DBF14
S1130F60ADB7BEB7119682E2F80101900D928A9551
S1130F70E1F70E94CD030FB6F894DEBF0FBECDBFDC
S1130F80DF92CF923F922F929C899F932B892F932C
S1130F908DB79EB782970FB6F8949EBF0FBE8DBFD4
S1130FA0ADB7BEB7119682E2F80101900D928A9511
S1130FB0E1F70E9407039FEFE91AF90A0FB6F894C4
S1130FC0DEBF0FBECDBF93E0E916F10409F0B2CF46
S1130FD0AA80BB80CC80DD80EF80F88409851A85E7
S1130FE029893A894F8558896D857E858B859C85AD
S1130FF00E949204F2988B859C858539914148F42E
S11310008D859E8584359B4020F08F859889C39774
S113101018F081E00E948B05E12CF12C00E018E02F
S113102020E030E040E058E060E085E00E94B3005A
S11310308FEF90E722E0815090402040E1F700C01C
S1131040000009CF1F920F920FB60F9211242F9315
S11310503F934F935F936F937F938F939F93AF933C
S1131060BF93EF93FF9381E00E94360583B1877F9E
S113107009F0F79AD89AFF91EF91BF91AF919F91A0
S11310808F917F916F915F914F913F912F910F902D
S11310900FBE0F901F9018951F920F920FB60F92CC
S11310A01124EF92FF920F931F932F933F934F932B
S11310B05F936F937F938F939F93AF93BF93EF93BC
S11310C0FF938091E00085FF5FC080E58093ED0091
S11310D0EEEEF0E080818F7D80838091F300803597
S11310E0F1F48091F20090E0209175013091760145
S11310F082179307A1F48091F000869586958695D2
S1131100813069F4F29A1ABAEAEFF0E080818081C2
S11311108081808180FF02C0F19A01C0F1988091A2
S1131120F300803529F58091F20090E0209175015B
S11311303091760182179307D9F48091F000869557
S1131140869586958031A1F4EAEFF0E0808190E005
S1131150982F8827308140812081832B019741F487
S1131160822F90E0942B892B11F0F19A01C0F19811
S1131170E12CF12C00E018E020E030E040E058E001
S113118060E085E00E94B30080E58093ED00EEEE20
S1131190F0E080818F7D8083FF91EF91BF91AF91CB
S11311A09F918F917F916F915F914F913F912F917B
S11311B01F910F91FF90EF900F900FBE0F901F9013
S11311C018951F920F920FB60F9211242F933F93ED
S11311D04F935F936F937F938F939F93AF93BF933B
S11311E0EF93FF9380910C0190910D0101969093E0
S11311F00D0180930C018AB38F5F8ABB89B38F5F23
S113120089BB8AB3853F28F0F29903C084E00E9429
S11312108B0580910A01811114C0809100012DE396
S1131220829FC001112420910C0130910D012817D7
S1131230390738F010920D0110920C0181E080936F
S11312400B01809101012DE3829FC00111242091A3
S11312500C0130910D012817390738F010920D0157
S113126010920C0181E080930B01FF91EF91BF91EB
S1131270AF919F918F917F916F915F914F913F912A
S11312802F910F900FBE0F901F901895CF93DF935F
S1131290D82FC62F2E9882E00E94390C8D2F0E94E1
S11312A0390C8C2F0E94390C2E9ADF91CF9108951E
S11312B02E980E94390C2E9A08951F93CF93DF9392
S11312C0182FC62FD42F2E9885E00E94390C812F19
S11312D00E94390C8D2F0E94390C8C2F0E94390CDE
S11312E02E9ADF91CF911F910895459887EC90E055
S11312F00197F1F700C00000459A40EE60E88FE0E6
S11313000E945D0964E08AE20E9446096AEC89E26F
S11313100E94460961E088E20E94460963E08BE28C
S11313200E94460961E08DE00E94460940EE60E0BB
S11313308FE00E945D090895CF932E9880EA0E9461
S1131340390C80E00E94390CC82F80E00E94390CCF
S11313502E9A8C2FCF910895EF92FF920F931F93A3
S1131360CF938C01613710F4C0E901C0C4E96F7EEA
S113137021E030E0663611F020E030E0220F331F28
S1131380C22B2E988C2F0E94390CC1FD03C09CE007
S113139080E002C098E080E0E92EF82EC0E007C0AB
S11313A080E00E94390CF80181938F01CF5F8C2F6C
S11313B090E08E159F05A4F32E9ACF911F910F9163
S11313C0FF90EF900895CF93C82F2E9883E00E944A
S11313D0390C8C2F0E94390C80E00E94390C2E9A13
S11313E0CF91089580E30E94E30983FF0CC080E459
S11313F00E94E30983FF09C080E50E94E30983FF9B
S113140006C080E0089580E3089580E4089580E5AF
S11314100895CF92DF92EF92FF926A017B018230AE
S113142009F469C028F4882361F08130B9F117C147
S1131430843009F4BAC008F48BC0853009F4E2C0E2
S11314400EC1CB01BA01052E55E196958795779586
S113145067955A95D1F7502D80E00E944609D7012F
S1131460C601072E7DE0B695A795979587957A9541
S1131470D1F7702D682F607E8E2D8370682B686085
S113148081E00E94460999278F2D7E2D6D2D82E0E3
S11314900E9446096C2D83E00E944609C701B601EB
S11314A0052E55E196958795779567955A95D1F7C9
S11314B0502D84E00E944609D701C601072E7DE025
S11314C0B695A795979587957A95D1F7702D682F3E
S11314D0607E8E2D8370682B686085E00E944609CB
S11314E099278F2D7E2D6D2D86E00E9446096C2D47
S11314F087E00E944609C701B601052E55E196957D
S11315008795779567955A95D1F7502D88E00E9475
S11315104609D701C601072E7DE0B695A795979594
S113152087957A95D1F7702D682F607E8E2D837004
S1131530682B686089E00E94460999278F2D7E2DCB
S11315406D2D8AE00E9446096C2D8BE00E944609AD
S1131550C701B601052E55E1969587957795679550
S11315605A95D1F7502D80E10E944609D701C60152
S1131570072E7DE0B695A795979587957A95D1F72F
S1131580702D682F607E8E2D8370682B686081E1DA
S11315900E94460999278F2D7E2D6D2D82E10E9490
S11315A046096C2D83E10E944609C701B601052E48
S11315B055E196958795779567955A95D1F7502D6E
S11315C084E10E944609D701C601072E7DE0B69545
S11315D0A795979587957A95D1F7702D682F607E9A
S11315E08E2D8370682B686085E10E9446099927D7
S11315F08F2D7E2D6D2D86E10E9446096C2D87E18D
S11316000E944609C701B601052E55E196958795B6
S1131610779567955A95D1F7502D88E10E94460930
S1131620D701C601072E7DE0B695A79597958795B6
S11316307A95D1F7702D682F607E8E2D8370682B7C
S1131640686089E10E94460999278F2D7E2D6D2DB2
S11316508AE10E9446096C2D8BE10E944609FF90A5
S1131660EF90DF90CF900895CF92DF92EF92FF92A8
S113167082300CF07DC06A017B01882319F081302F
S1131680D9F178C0CB01BA01052E55E1969587951D
S1131690779567955A95D1F7502D80E20E944609B7
S11316A0D701C601072E7DE0B695A7959795879536
S11316B07A95D1F7702D682F607E8E2D8370682BFC
S11316C081E20E94460999278F2D7E2D6D2D82E29D
S11316D00E9446096C2D83E20E944609C114D1047C
S11316E0E104F10429F064E080E60E94460904C0A4
S11316F064E680E60E944609C701B601052E55E15D
S113170096958795779567955A95D1F7502D84E2EC
S11317100E944609D701C601072E7DE0B695A7951C
S1131720979587957A95D1F7702D682F607E8E2DC9
S11317308370682B85E20E94460999278F2D7E2DA0
S11317406D2D86E20E9446096C2D87E20E944609AF
S1131750CD28CE28CF2831F060E080E70E944609EA
S113176081E009C060E680E70E94460981E003C089
S113177080E001C081E0FF90EF90DF90CF9008956A
S11317808F929F92AF92BF92EF92FF920F931F930B
S1131790CF93DF93882309F461C048015901C52F11
S11317A0E42EF62ED82F63E00E944609C501B40149
S11317B0052E55E196958795779567955A95D1F7B6
S11317C0502D81E08D0F0E944609D501C401072EDA
S11317D07DE0B695A795979587957A95D1F7702D65
S11317E0682F607E8A2D8370682B686082E08D0F7D
S11317F00E94460999278B2D7A2D692D83E08D0F40
S11318000E944609682D84E08D0F0E9446096F2DC1
S113181085E08D0F0E944609FF2089F00E2D1C2FB4
S1131820C6E0CD0F86E08F0DF82EFD0EF801619114
S11318308F018C2F0E944609CF5FCF11F7CFD5952A
S1131840D595D595D595D35081E090E002C0880F09
S1131850991FDA95E2F780680E945809DF91CF91C9
S11318601F910F91FF90EF90BF90AF909F908F903A
S113187008958EBD0DB407FEFDCF8EB5089585B7CE
S11318808F7785BF81E58CBD81E08DBD1EBC089539
S1131890A1E21A2EAA1BBB1BFD010DC0AA1FBB1F70
S11318A0EE1FFF1FA217B307E407F50720F0A21BE2
S11318B0B30BE40BF50B661F771F881F991F1A944F
S11318C069F760957095809590959B01AC01BD0179
S11318D0CF010895A8E1B0E042E050E00C94770C09
S11318E00E94850C272F0C94860CDC01CB01FC0193
S11318F0F999FECF06C0F2BDE1BDF89A319600B465
S11319000D9241505040B8F70895262FF999FECF13
S11319101FBA92BD81BD20BD0FB6F894FA9AF99A08
S10D19200FBE01960895F894FFCF5E
S10B192A020A0E742D000000F6
S9030000FC
