:100000000C943E000C9448000C9448000C9448005A
:100010000C9448000C9448000C9448000C94480040
:100020000C9448000C9448000C9448000C94480030
:100030000C9448000C9448000C9448000C94480020
:100040000C9448000C94D7010C9472010C94480055
:100050000C9448000C9448000C9448000C94480000
:100060000C9448000C9448000C9448000C944800F0
:100070000C9448000C9448000C94480011241FBEB6
:10008000CFEFD0E1DEBFCDBF0E9451010C94E10162
:100090000C940000EF92FF920F931F93CF93DF9386
:1000A00081E08093D80080E00DEE10E06FEE70E00C
:1000B0004EEE50E027EF30E0C6EFD0E0A5EFB0E025
:1000C0000F2EF4EFEF2EF12CF02D982F9295907FBC
:1000D000F8019083FB011082FA011082F90110826D
:1000E00018821C92F70110828F5F863071F78EE0C4
:1000F0008093E20084E08093E30083E18093E40056
:1001000080E38093DE0080EA8093DB0082E08093CE
:10011000D8008091D90082FB882780F991E0892757
:10012000DF91CF911F910F91FF90EF900895EF9283
:10013000FF920F931F938295807F8093ED00822F13
:10014000880F880F880F8093F400DA01C901689442
:1001500014F8B695A795979587951694D1F780933F
:10016000F500DA01C901072E7DE0B695A7959795B0
:1001700087957A95D1F7702D8093F600DA01C90141
:10018000072E75E1B695A795979587957A95D1F73E
:10019000702D8093F7008E2D880F880F880F809325
:1001A000F000D801C701689414F8B695A795979503
:1001B00087951694D1F78093F100D801C701072ED7
:1001C0007DE0B695A795979587957A95D1F7702D8F
:1001D0008093F200D801C701072E75E1B695A79567
:1001E000979587957A95D1F7702D8093F300606984
:1001F0006093EF001F910F91FF90EF90089580E2C0
:100200008AB98BB183608BB990E194B985B1846E62
:1002100085B997B988B1816E88B90895ECE7F0E0A7
:100220009081907E8F71892B8083EAE7F0E0808156
:1002300080648083808184FFFDCF8091780020914D
:100240007900EAE7F0E0908190619083237090E07C
:10025000922B089589E00E940E0108958AE00E9481
:100260000E01089584E00E940E01089583B181FB80
:10027000222720F930E0C9011B9982604F998460E0
:100280003199886018998061309990681D998062D1
:100290003799806449998068489991603099926053
:1002A00008958FE39CE90197F1F700C000000E94D8
:1002B000FF009FEF20E782E0915020408040E1F76F
:1002C00000C000000E944A00EE24E394F12C00E8F4
:1002D00018E02FEF3FEFA90168E081E00E9497004E
:1002E0007894FFCF1F920F920FB60F921124EF92C6
:1002F000FF920F931F932F933F934F935F936F93AF
:100300007F938F939F93AF93BF93EF93FF939BB193
:1003100080E289278BB98091E00085FF2BC080E5C2
:100320008093ED00EEEEF0E080818F7D8083809100
:10033000F3008434F9F48091F000869586958695D3
:100340008130C1F495B180E1892785B90E943601D9
:100350000E942A010E942E010E943201EE24E394A1
:10036000F12C00E818E02FEF3FEFA90168E081E0F1
:100370000E94970080E58093ED00EEEEF0E0808132
:100380008F7D8083FF91EF91BF91AF919F918F916E
:100390007F916F915F914F913F912F911F910F919D
:1003A000FF90EF900F900FBE0F901F9018951F9227
:1003B0000F920FB60F9211240F900FBE0F901F9047
:0603C0001895F894FFCF30
:00000001FF
