S01B00005155544D535F53687574646F776E426F6172642E73726563CC
S11300000C943E000C9448000C9448000C94480056
S11300100C9448000C9448000C9448000C9448003C
S11300200C9448000C9448000C9448000C9448002C
S11300300C9448000C9448000C9448000C9448001C
S11300400C9448000C94F3010C9475010C94480032
S11300500C9448000C9448000C9448000C944800FC
S11300600C9448000C9448000C9448000C944800EC
S11300700C9448000C9448000C94480011241FBEB2
S1130080CFEFD0E1DEBFCDBF0E945C010C9406022D
S11300900C940000EF92FF920F931F93CF93DF9382
S11300A081E08093D80080E00DEE10E06FEE70E008
S11300B04EEE50E027EF30E0C6EFD0E0A5EFB0E021
S11300C00F2EF4EFEF2EF12CF02D982F9295907FB8
S11300D0F8019083FB011082FA011082F901108269
S11300E018821C92F70110828F5F863071F78EE0C0
S11300F08093E20084E08093E30083E18093E40052
S113010080E38093DE0080EA8093DB0082E08093CA
S1130110D800FFEF20E782E0F15020408040E1F773
S113012000C000008091D90082FB882780F991E00B
S11301308927DF91CF911F910F91FF90EF90089540
S1130140EF920F931F938295807F8093ED00EEEEE4
S1130150F0E080818F7B80831092F400802F880FE1
S1130160880F880F8093F000D901C801689414F8AF
S1130170B695A795979587951694D1F78093F10036
S1130180D901C801072E7DE0B695A7959795879567
S11301907A95D1F7702D8093F2000F2EF5E1369504
S11301A0279517950795FA95D1F7F02D0093F3004D
S11301B0662371F0FA018FEF860F90E00196480FE5
S11301C0591FAAEFB0E081918C93E417F507D9F792
S11301D060656093EF00EE20A1F08091EE0086FD53
S11301E010C080E0EEEEF0E003C0908196FD09C0FF
S11301F0AFE9BFE01197F1F700C000008F5FE8128C
S1130200F4CF1F910F91EF9008951AB88BB18360CA
S11302108BB914B885B1846E85B917B888B1816E6D
S113022088B9089514BC85E085BD81E080936E0093
S11302300895ECE7F0E09081907E8F71892B8083A4
S1130240EAE7F0E0808180648083808184FFFDCFD1
S11302508091780020917900EAE7F0E09081906144
S11302609083237090E0922B089589E00E941901F5
S113027008958AE00E941901089584E00E941901FA
S1130280089583B181FB222720F930E0C9011B992D
S113029082604F998460319988601899806130999F
S11302A090681D998062379980644999806848995B
S11302B091603099926008958FE39CE90197F1F77A
S11302C000C000000E9405019FEF20E782E09150EA
S11302D020408040E1F700C000000E94FD010E9420
S11302E04A000E9412017894FFCF1F920F920FB61A
S11302F00F921124CF92DF92EF92FF920F931F93EC
S11303002F933F934F935F936F937F938F939F9319
S1130310AF93BF93EF93FF93CF93DF93CDB7DEB744
S11303202897DEBFCDBF8091E00085FF35C080E512
S11303308093ED00EEEEF0E080818F7D80838091EC
S1130340F300843449F58091F0008695869586956E
S1130350813011F50E944101082F192F0E943501A7
S1130360E82EF92E0E943901C82ED92E0E943D0193
S113037089839A83CB82DC82ED82FE820F83188785
S1130380E12C00E010E020E830E0AE014F5F5F4F69
S113039068E085E00E94A00080E58093ED00EEEE29
S11303A0F0E080818F7D808328960FB6F894DEBFBD
S11303B00FBECDBFDF91CF91FF91EF91BF91AF9170
S11303C09F918F917F916F915F914F913F912F9169
S11303D01F910F91FF90EF90DF90CF900F900FBE81
S11303E00F901F9018951F920F920FB60F92112421
S11303F00F900FBE0F901F90189585B78F7785BF0C
S113040081E58CBD81E08DBD1EBC0895F894FFCFBD
S9030000FC
